{
  "_format": "hh-sol-artifact-1",
  "contractName": "Lock",
  "sourceName": "contracts/Lock.sol",
  "abi": [
    {
      "inputs": [],
      "stateMutability": "nonpayable",
      "type": "constructor"
    },
    {
      "inputs": [
        {
          "internalType": "uint256",
          "name": "id",
          "type": "uint256"
        },
        {
          "internalType": "string",
          "name": "name",
          "type": "string"
        },
        {
          "internalType": "string",
          "name": "emp_address",
          "type": "string"
        },
        {
          "internalType": "uint256",
          "name": "phno",
          "type": "uint256"
        },
        {
          "internalType": "uint256",
          "name": "salary",
          "type": "uint256"
        },
        {
          "internalType": "string",
          "name": "dep",
          "type": "string"
        }
      ],
      "name": "createEmp",
      "outputs": [],
      "stateMutability": "nonpayable",
      "type": "function"
    },
    {
      "inputs": [],
      "name": "getAllEmplength",
      "outputs": [
        {
          "internalType": "uint256",
          "name": "",
          "type": "uint256"
        }
      ],
      "stateMutability": "view",
      "type": "function"
    },
    {
      "inputs": [],
      "name": "getAllEmployee",
      "outputs": [
        {
          "components": [
            {
              "internalType": "uint256",
              "name": "Emp_id",
              "type": "uint256"
            },
            {
              "internalType": "string",
              "name": "Emp_name",
              "type": "string"
            },
            {
              "internalType": "string",
              "name": "Emp_address",
              "type": "string"
            },
            {
              "internalType": "uint256",
              "name": "Emp_PhNo",
              "type": "uint256"
            },
            {
              "internalType": "uint256",
              "name": "Emp_salary",
              "type": "uint256"
            },
            {
              "internalType": "string",
              "name": "Emp_department",
              "type": "string"
            }
          ],
          "internalType": "struct Lock.Employee[]",
          "name": "",
          "type": "tuple[]"
        }
      ],
      "stateMutability": "view",
      "type": "function"
    },
    {
      "inputs": [],
      "name": "owner",
      "outputs": [
        {
          "internalType": "address",
          "name": "",
          "type": "address"
        }
      ],
      "stateMutability": "view",
      "type": "function"
    }
  ],
  "bytecode": "0x6080604052348015600f57600080fd5b50336000806101000a81548173ffffffffffffffffffffffffffffffffffffffff021916908373ffffffffffffffffffffffffffffffffffffffff160217905550610d0c8061005f6000396000f3fe608060405234801561001057600080fd5b506004361061004c5760003560e01c80636cff9c7b146100515780638da5cb5b1461006f578063c055524f1461008d578063c78444ac146100a9575b600080fd5b6100596100c7565b604051610066919061067d565b60405180910390f35b6100776102fa565b60405161008491906106e0565b60405180910390f35b6100a760048036038101906100a29190610870565b61031e565b005b6100b161046e565b6040516100be9190610960565b60405180910390f35b60606001805480602002602001604051908101604052809291908181526020016000905b828210156102f157838290600052602060002090600602016040518060c001604052908160008201548152602001600182018054610128906109aa565b80601f0160208091040260200160405190810160405280929190818152602001828054610154906109aa565b80156101a15780601f10610176576101008083540402835291602001916101a1565b820191906000526020600020905b81548152906001019060200180831161018457829003601f168201915b505050505081526020016002820180546101ba906109aa565b80601f01602080910402602001604051908101604052809291908181526020018280546101e6906109aa565b80156102335780601f1061020857610100808354040283529160200191610233565b820191906000526020600020905b81548152906001019060200180831161021657829003601f168201915b505050505081526020016003820154815260200160048201548152602001600582018054610260906109aa565b80601f016020809104026020016040519081016040528092919081815260200182805461028c906109aa565b80156102d95780601f106102ae576101008083540402835291602001916102d9565b820191906000526020600020905b8154815290600101906020018083116102bc57829003601f168201915b505050505081525050815260200190600101906100eb565b50505050905090565b60008054906101000a900473ffffffffffffffffffffffffffffffffffffffff1681565b60008054906101000a900473ffffffffffffffffffffffffffffffffffffffff1673ffffffffffffffffffffffffffffffffffffffff163373ffffffffffffffffffffffffffffffffffffffff16146103ac576040517f08c379a00000000000000000000000000000000000000000000000000000000081526004016103a390610a38565b60405180910390fd5b60016040518060c001604052808881526020018781526020018681526020018581526020018481526020018381525090806001815401808255809150506001900390600052602060002090600602016000909190919091506000820151816000015560208201518160010190816104239190610c04565b5060408201518160020190816104399190610c04565b50606082015181600301556080820151816004015560a08201518160050190816104639190610c04565b505050505050505050565b6000600180549050905090565b600081519050919050565b600082825260208201905092915050565b6000819050602082019050919050565b6000819050919050565b6104ba816104a7565b82525050565b600081519050919050565b600082825260208201905092915050565b60005b838110156104fa5780820151818401526020810190506104df565b60008484015250505050565b6000601f19601f8301169050919050565b6000610522826104c0565b61052c81856104cb565b935061053c8185602086016104dc565b61054581610506565b840191505092915050565b600060c08301600083015161056860008601826104b1565b50602083015184820360208601526105808282610517565b9150506040830151848203604086015261059a8282610517565b91505060608301516105af60608601826104b1565b5060808301516105c260808601826104b1565b5060a083015184820360a08601526105da8282610517565b9150508091505092915050565b60006105f38383610550565b905092915050565b6000602082019050919050565b60006106138261047b565b61061d8185610486565b93508360208202850161062f85610497565b8060005b8581101561066b578484038952815161064c85826105e7565b9450610657836105fb565b925060208a01995050600181019050610633565b50829750879550505050505092915050565b600060208201905081810360008301526106978184610608565b905092915050565b600073ffffffffffffffffffffffffffffffffffffffff82169050919050565b60006106ca8261069f565b9050919050565b6106da816106bf565b82525050565b60006020820190506106f560008301846106d1565b92915050565b6000604051905090565b600080fd5b600080fd5b610718816104a7565b811461072357600080fd5b50565b6000813590506107358161070f565b92915050565b600080fd5b600080fd5b7f4e487b7100000000000000000000000000000000000000000000000000000000600052604160045260246000fd5b61077d82610506565b810181811067ffffffffffffffff8211171561079c5761079b610745565b5b80604052505050565b60006107af6106fb565b90506107bb8282610774565b919050565b600067ffffffffffffffff8211156107db576107da610745565b5b6107e482610506565b9050602081019050919050565b82818337600083830152505050565b600061081361080e846107c0565b6107a5565b90508281526020810184848401111561082f5761082e610740565b5b61083a8482856107f1565b509392505050565b600082601f8301126108575761085661073b565b5b8135610867848260208601610800565b91505092915050565b60008060008060008060c0878903121561088d5761088c610705565b5b600061089b89828a01610726565b965050602087013567ffffffffffffffff8111156108bc576108bb61070a565b5b6108c889828a01610842565b955050604087013567ffffffffffffffff8111156108e9576108e861070a565b5b6108f589828a01610842565b945050606061090689828a01610726565b935050608061091789828a01610726565b92505060a087013567ffffffffffffffff8111156109385761093761070a565b5b61094489828a01610842565b9150509295509295509295565b61095a816104a7565b82525050565b60006020820190506109756000830184610951565b92915050565b7f4e487b7100000000000000000000000000000000000000000000000000000000600052602260045260246000fd5b600060028204905060018216806109c257607f821691505b6020821081036109d5576109d461097b565b5b50919050565b600082825260208201905092915050565b7f6f6e6c79206f776e65722063616e206163636573730000000000000000000000600082015250565b6000610a226015836109db565b9150610a2d826109ec565b602082019050919050565b60006020820190508181036000830152610a5181610a15565b9050919050565b60008190508160005260206000209050919050565b60006020601f8301049050919050565b600082821b905092915050565b600060088302610aba7fffffffffffffffffffffffffffffffffffffffffffffffffffffffffffffffff82610a7d565b610ac48683610a7d565b95508019841693508086168417925050509392505050565b6000819050919050565b6000610b01610afc610af7846104a7565b610adc565b6104a7565b9050919050565b6000819050919050565b610b1b83610ae6565b610b2f610b2782610b08565b848454610a8a565b825550505050565b600090565b610b44610b37565b610b4f818484610b12565b505050565b5b81811015610b7357610b68600082610b3c565b600181019050610b55565b5050565b601f821115610bb857610b8981610a58565b610b9284610a6d565b81016020851015610ba1578190505b610bb5610bad85610a6d565b830182610b54565b50505b505050565b600082821c905092915050565b6000610bdb60001984600802610bbd565b1980831691505092915050565b6000610bf48383610bca565b9150826002028217905092915050565b610c0d826104c0565b67ffffffffffffffff811115610c2657610c25610745565b5b610c3082546109aa565b610c3b828285610b77565b600060209050601f831160018114610c6e5760008415610c5c578287015190505b610c668582610be8565b865550610cce565b601f198416610c7c86610a58565b60005b82811015610ca457848901518255600182019150602085019450602081019050610c7f565b86831015610cc15784890151610cbd601f891682610bca565b8355505b6001600288020188555050505b50505050505056fea264697066735822122038eec03d31fef730b18e76bc9184bd3102dd0139147c54688f75673ea9f8837d64736f6c634300081b0033",
  "linkReferences": {},
  "deployedLinkReferences": {}
}